:020000040800F2
:1000000000000220A9020008250200082D020008B5
:10001000350200083D02000845020008000000000B
:100020000000000000000000000000004D02000879
:100030005B02000800000000690200087702000867
:10004000F9020008F9020008F9020008F9020008A4
:10005000F9020008F9020008F9020008F902000894
:10006000F9020008F9020008F9020008F902000884
:10007000F9020008F9020008F9020008F902000874
:10008000F9020008F9020008F90200080000000067
:10009000000000000000000000000000F90200085D
:1000A000F9020008F9020008F9020008F902000844
:1000B000F9020008F9020008F9020008F902000834
:1000C000F9020008F9020008F9020008F902000824
:1000D000F9020008F9020008F90200080000000017
:1000E000F9020008F9020008F90200080000000007
:1000F000000000000000000000000000F9020008FD
:1001000000000000F9020008F9020008F9020008E6
:1001100000000000000000000000000000000000DF
:10012000F9020008F9020008F9020008F9020008C3
:10013000F9020008000000000000000000000000BC
:10014000000000000000000000000000F9020008AC
:10015000F9020008F9020008F9020008F902000893
:10016000F9020008F9020008000000000000000089
:10017000000000000000000000000000000000007F
:1001800000000000F902000800000000000000006C
:08019000F9020008F902000861
:1001980010B5054C237833B9044B13B10448AFF3B9
:1001A80000800123237010BD04000020000000001F
:1001B8006C03000808B5034B1BB103490348AFF3B0
:1001C800008008BD00000000080000206C03000843
:1001D80080B483B000AF0E4B1B680D4A43F0040394
:1001E80013600C4B1B680B4A43F080631360094B88
:1001F8005B69084A83F40053536100237B6002E083
:100208007B6801337B607B68034A9342F8D3EEE74F
:100218003038024000080240A025260080B400AF14
:1002280000BFFDE780B400AF00BFFDE780B400AFBA
:1002380000BFFDE780B400AF00BFFDE780B400AFAA
:1002480000BFFDE780B400AF00BFBD465DF8047B8A
:10025800704780B400AF00BFBD465DF8047B7047AF
:1002680080B400AF00BFBD465DF8047B704780B521
:1002780000AF00F03FF800BF80BD000080B400AFC1
:10028800064BD3F88830054A43F47003C2F8883027
:1002980000BFBD465DF8047B704700BF00ED00E07D
:1002A800DFF834D0FFF7EAFF0C480D490D4A002368
:1002B80002E0D458C4500433C4188C42F9D30A4A13
:1002C8000A4C002301E013600432A242FBD300F081
:1002D80025F8FFF77DFF704700000220000000208E
:1002E800040000208C0300080400002024000020E3
:1002F800FEE7000080B400AF064B1B781A46064B99
:100308001B681344044A136000BFBD465DF8047BB4
:10031800704700BF000000202000002070B50D4B82
:100328000D4D5B1B9C100026A64209D100F01AF85F
:100338000A4D0B4B5B1B9C100026A64205D170BDD5
:1003480055F8043B98470136EEE755F8043B9847C3
:100358000136F2E7840300088403000884030008D8
:1003680088030008F8B500BFF8BC08BC9E46704773
:0C037800F8B500BFF8BC08BC9E467047FA
:04038400BD010008AF
:0403880099010008CF
:04038C00010000006C
:04000005080002A944
:00000001FF
