:020000040800F2
:1000000000500020E5010008810100088901000876
:100010009101000899010008A101000800000000FA
:10002000000000000000000000000000A90100081E
:10003000B501000800000000C1010008CD01000862
:100040002D0200082D0200082D0200082D020008D4
:100050002D0200082D0200082D0200082D020008C4
:100060002D0200082D0200082D0200082D020008B4
:100070002D0200082D0200082D0200082D020008A4
:100080002D0200082D0200082D0200082D02000894
:100090002D0200082D0200082D0200082D02000884
:1000A0002D0200082D0200082D0200082D02000874
:1000B0002D0200082D0200082D0200082D02000864
:1000C0002D0200082D0200082D0200082D02000854
:1000D0002D0200082D0200082D0200082D02000844
:1000E0002D0200082D0200082D020008000000006B
:1000F0000000000000000000000000000000000000
:0C01000000000000000000005FF808F1A3
:10010C0010B5054C237833B9044B13B10448AFF345
:10011C0000800123237010BD0400002000000000AB
:10012C009C02000808B5034B1BB103490348AFF30D
:10013C00008008BD00000000080000209C020008A0
:10014C0080B400AF094B9B69084A43F010039361DC
:10015C00074B5B68064A43F480135360044BDB681F
:10016C00034A83F40053D360F8E700BF0010024049
:10017C000010014080B400AF00BFFDE780B400AFB9
:10018C0000BFFDE780B400AF00BFFDE780B400AF57
:10019C0000BFFDE780B400AF00BFFDE780B400AF47
:1001AC0000BFBD4680BC704780B400AF00BFBD46E9
:1001BC0080BC704780B400AF00BFBD4680BC7047A8
:1001CC0080B500AF00F02EF800BF80BD80B400AF4A
:1001DC0000BFBD4680BC7047FFF7F8FF0B480C49C9
:1001EC000C4A002302E0D458C4500433C4188C4287
:1001FC00F9D3094A094C002301E013600432A242EE
:10020C00FBD300F021F8FFF79BFF704700000020A4
:10021C0004000020BC020008040000202400002080
:10022C00FEE7000080B400AF054B1B781A46054B67
:10023C001B681344034A136000BFBD4680BC704763
:10024C00000000202000002070B500260C4D0D4B46
:10025C005B1B9C10A64209D1002600F019F80A4D30
:10026C000A4B5B1B9C10A64205D170BD55F8043B94
:10027C0098470136EEE755F8043B98470136F2E70C
:10028C00B4020008B4020008B4020008B802000866
:10029C00F8B500BFF8BC08BC9E467047F8B500BF67
:0802AC00F8BC08BC9E46704737
:0402B400310100080C
:0402B8000D0100082C
:0402BC00010000003D
:04000005080001E509
:00000001FF
