:020000040800F2
:100000000050002011020008AD010008B5010008F1
:10001000BD010008C5010008CD0100080000000076
:10002000000000000000000000000000D5010008F2
:10003000E101000800000000ED010008F9010008DE
:100040005902000859020008590200085902000824
:100050005902000859020008590200085902000814
:100060005902000859020008590200085902000804
:1000700059020008590200085902000859020008F4
:1000800059020008590200085902000859020008E4
:1000900059020008590200085902000859020008D4
:1000A00059020008590200085902000859020008C4
:1000B00059020008590200085902000859020008B4
:1000C00059020008590200085902000859020008A4
:1000D0005902000859020008590200085902000894
:1000E00059020008590200085902000800000000E7
:1000F0000000000000000000000000000000000000
:0C01000000000000000000005FF808F1A3
:10010C0010B5054C237833B9044B13B10448AFF345
:10011C0000800123237010BD0400002000000000AB
:10012C00C802000808B5034B1BB103490348AFF3E1
:10013C00008008BD0000000008000020C802000874
:10014C0080B483B000AF786000BF7B685A1E7A60C1
:10015C00002BFAD100BF00BF0C37BD4680BC7047E6
:10016C0080B500AF0B4B9B690A4A43F010039361B7
:10017C00094B5B68084A43F480135360064BDB68F9
:10018C00054A83F40053D3600448FFF7D9FF00BF3E
:10019C00F4E700BF001002400010014048E80100E5
:1001AC0080B400AF00BFFDE780B400AF00BFFDE737
:1001BC0080B400AF00BFFDE780B400AF00BFFDE727
:1001CC0080B400AF00BFFDE780B400AF00BFBD46F8
:1001DC0080BC704780B400AF00BFBD4680BC704788
:1001EC0080B400AF00BFBD4680BC704780B500AF87
:1001FC0000F02EF800BF80BD80B400AF00BFBD463C
:10020C0080BC7047FFF7F8FF0B480C490C4A0023E1
:10021C0002E0D458C4500433C4188C42F9D3094AB0
:10022C00094C002301E013600432A242FBD300F01E
:10023C0021F8FFF795FF7047000000200400002014
:10024C00E80200080400002024000020FEE7000063
:10025C0080B400AF054B1B781A46054B1B68134442
:10026C00034A136000BFBD4680BC704700000020ED
:10027C002000002070B500260C4D0D4B5B1B9C1014
:10028C00A64209D1002600F019F80A4D0A4B5B1B57
:10029C009C10A64205D170BD55F8043B9847013619
:1002AC00EEE755F8043B98470136F2E7E002000808
:1002BC00E0020008E0020008E4020008F8B500BF04
:1002CC00F8BC08BC9E467047F8B500BFF8BC08BC2B
:0402DC009E46704783
:0402E00031010008E0
:0402E4000D01000800
:0402E8000100000011
:0400000508000211DC
:00000001FF
